:020000020000FC
:0200000026C018
:0200040089C0B1
:10004C0081C00FEF0DBF08E00EBF0BE804BD05E04B
:10005C0005BD00E006BD0FE707BD569A08E1009309
:10006C00C10006E00093C20004E410E00093C40059
:10007C001093C50059E130EA43E94A95F1F73A95F6
:10008C00E1F75A95D1F70000389800E600937C0010
:10009C0007EC00937A0001E000937E000091C10010
:1000AC0000680093C10005E4009381002098992713
:1000BC0078949F3FF1F701E00093690001E00DBBDC
:1000CC0001E00CBB529872E58BE290E09A95F1F747
:1000DC008A95E1F77A95D1F7C895000000270DBBFA
:1000EC000027009381009F3FF1F7F89400917A006C
:1000FC0006FDFCCF006400937A00209179001091EA
:10010C00C00015FFFCCF2093C600F0CF8FB78F93A4
:10011C009F932091860030918700002700938400E4
:10012C000093850000E4109181001027109381004A
:10013C001091C00015FFFCCF2093C6009F918F91AA
:10014C008FBF18958FB78F938091C00087FFFCCF1E
:10015C008091C600803209F001C09FEF8F918FBF54
:02016C001895E4
:00000001FF
