:020000020000FC
:0200000004C03A
:0200040033C007
:1000080041C01FEF1DBF18E01EBF0FE0009369003D
:1000180003E00DBB03E00CBB78940FE307B900279E
:100028000AB900E4069508B909D0013009F0FACFF9
:10003800000F08B903D00032A9F3FACF53EF65EEE9
:1000480077E17A95F1F76A95D9F75A95C1F7089546
:1000580089E296E9A0E8AA95F1F79A95E1F78A95D9
:10006800D1F708950F932FB72F930FE021E230E0D7
:1000780028B9EEDF38B9ECDF0A95D1F72F912FBFF9
:100088000F9118950F932FB72F9300E008B9D6DF7B
:0E00980003950034D9F72F912FBF0F911895C3
:00000001FF
