:020000020000FC
:0200000071C0CD
:10004C0064C02A2A2A20486F6C61204C61626F20A0
:10005C006465204D6963726F202A2A2A0D0A457344
:10006C00637269626120312C20322C2033206F2086
:10007C0034207061726120636F6E74726F6C617288
:10008C00206C6F73204C4544730D0A004552524F3F
:10009C00523A204C6120656E747261646120646513
:1000AC0062652073657220756E206E756D65726F5A
:1000BC0020656E7465726F20636F6D7072656E640F
:1000CC0069646F20656E74726520656C20312079CF
:1000DC0020656C20340D0A000FEF0DBF08E00EBF39
:1000EC0007E610E00093C4001093C50008E10093EC
:1000FC00C10006E00093C2004CD0EEE4F0E037D033
:10010C000FE104B912D07894FFCF4FB74F933AD088
:10011C00013389F040F1043301F12AF5023389F0FF
:10012C000333A9F04F914FBF18954091C10040681F
:10013C004093C1000895289902C0289AF3CF2898BB
:10014C00F1CF299902C0299AEDCF2998EBCF2A99A2
:10015C0002C02A9AE7CF2A98E5CF2B9902C02B9A96
:10016C00E1CF2B98DFCFE8E9F0E001D0DBCF0591B0
:10017C00002339F01091C00015FFFCCF0093C6008E
:10018C00F6CF08951091C00017FFFCCF0091C60068
:10019C00089582E090EAA3E9AA95F1F79A95E1F720
:0601AC008A95D1F70895C9
:00000001FF
